{
  "contractName": "Land",
  "abi": [
    {
      "inputs": [
        {
          "internalType": "string",
          "name": "_name",
          "type": "string"
        },
        {
          "internalType": "string",
          "name": "_symbol",
          "type": "string"
        },
        {
          "internalType": "uint256",
          "name": "_cost",
          "type": "uint256"
        }
      ],
      "stateMutability": "nonpayable",
      "type": "constructor"
    },
    {
      "anonymous": false,
      "inputs": [
        {
          "indexed": true,
          "internalType": "address",
          "name": "owner",
          "type": "address"
        },
        {
          "indexed": true,
          "internalType": "address",
          "name": "approved",
          "type": "address"
        },
        {
          "indexed": true,
          "internalType": "uint256",
          "name": "tokenId",
          "type": "uint256"
        }
      ],
      "name": "Approval",
      "type": "event"
    },
    {
      "anonymous": false,
      "inputs": [
        {
          "indexed": true,
          "internalType": "address",
          "name": "owner",
          "type": "address"
        },
        {
          "indexed": true,
          "internalType": "address",
          "name": "operator",
          "type": "address"
        },
        {
          "indexed": false,
          "internalType": "bool",
          "name": "approved",
          "type": "bool"
        }
      ],
      "name": "ApprovalForAll",
      "type": "event"
    },
    {
      "anonymous": false,
      "inputs": [
        {
          "indexed": true,
          "internalType": "address",
          "name": "from",
          "type": "address"
        },
        {
          "indexed": true,
          "internalType": "address",
          "name": "to",
          "type": "address"
        },
        {
          "indexed": true,
          "internalType": "uint256",
          "name": "tokenId",
          "type": "uint256"
        }
      ],
      "name": "Transfer",
      "type": "event"
    },
    {
      "inputs": [
        {
          "internalType": "address",
          "name": "to",
          "type": "address"
        },
        {
          "internalType": "uint256",
          "name": "tokenId",
          "type": "uint256"
        }
      ],
      "name": "approve",
      "outputs": [],
      "stateMutability": "nonpayable",
      "type": "function"
    },
    {
      "inputs": [
        {
          "internalType": "address",
          "name": "owner",
          "type": "address"
        }
      ],
      "name": "balanceOf",
      "outputs": [
        {
          "internalType": "uint256",
          "name": "",
          "type": "uint256"
        }
      ],
      "stateMutability": "view",
      "type": "function",
      "constant": true
    },
    {
      "inputs": [
        {
          "internalType": "uint256",
          "name": "",
          "type": "uint256"
        }
      ],
      "name": "buildings",
      "outputs": [
        {
          "internalType": "string",
          "name": "name",
          "type": "string"
        },
        {
          "internalType": "address",
          "name": "owner",
          "type": "address"
        },
        {
          "internalType": "int256",
          "name": "posX",
          "type": "int256"
        },
        {
          "internalType": "int256",
          "name": "posY",
          "type": "int256"
        },
        {
          "internalType": "int256",
          "name": "posZ",
          "type": "int256"
        },
        {
          "internalType": "uint256",
          "name": "sizeX",
          "type": "uint256"
        },
        {
          "internalType": "uint256",
          "name": "sizeY",
          "type": "uint256"
        },
        {
          "internalType": "uint256",
          "name": "sizeZ",
          "type": "uint256"
        }
      ],
      "stateMutability": "view",
      "type": "function",
      "constant": true
    },
    {
      "inputs": [],
      "name": "cost",
      "outputs": [
        {
          "internalType": "uint256",
          "name": "",
          "type": "uint256"
        }
      ],
      "stateMutability": "view",
      "type": "function",
      "constant": true
    },
    {
      "inputs": [
        {
          "internalType": "uint256",
          "name": "tokenId",
          "type": "uint256"
        }
      ],
      "name": "getApproved",
      "outputs": [
        {
          "internalType": "address",
          "name": "",
          "type": "address"
        }
      ],
      "stateMutability": "view",
      "type": "function",
      "constant": true
    },
    {
      "inputs": [
        {
          "internalType": "address",
          "name": "owner",
          "type": "address"
        },
        {
          "internalType": "address",
          "name": "operator",
          "type": "address"
        }
      ],
      "name": "isApprovedForAll",
      "outputs": [
        {
          "internalType": "bool",
          "name": "",
          "type": "bool"
        }
      ],
      "stateMutability": "view",
      "type": "function",
      "constant": true
    },
    {
      "inputs": [],
      "name": "maxSupply",
      "outputs": [
        {
          "internalType": "uint256",
          "name": "",
          "type": "uint256"
        }
      ],
      "stateMutability": "view",
      "type": "function",
      "constant": true
    },
    {
      "inputs": [],
      "name": "name",
      "outputs": [
        {
          "internalType": "string",
          "name": "",
          "type": "string"
        }
      ],
      "stateMutability": "view",
      "type": "function",
      "constant": true
    },
    {
      "inputs": [
        {
          "internalType": "uint256",
          "name": "tokenId",
          "type": "uint256"
        }
      ],
      "name": "ownerOf",
      "outputs": [
        {
          "internalType": "address",
          "name": "",
          "type": "address"
        }
      ],
      "stateMutability": "view",
      "type": "function",
      "constant": true
    },
    {
      "inputs": [
        {
          "internalType": "address",
          "name": "from",
          "type": "address"
        },
        {
          "internalType": "address",
          "name": "to",
          "type": "address"
        },
        {
          "internalType": "uint256",
          "name": "tokenId",
          "type": "uint256"
        }
      ],
      "name": "safeTransferFrom",
      "outputs": [],
      "stateMutability": "nonpayable",
      "type": "function"
    },
    {
      "inputs": [
        {
          "internalType": "address",
          "name": "from",
          "type": "address"
        },
        {
          "internalType": "address",
          "name": "to",
          "type": "address"
        },
        {
          "internalType": "uint256",
          "name": "tokenId",
          "type": "uint256"
        },
        {
          "internalType": "bytes",
          "name": "_data",
          "type": "bytes"
        }
      ],
      "name": "safeTransferFrom",
      "outputs": [],
      "stateMutability": "nonpayable",
      "type": "function"
    },
    {
      "inputs": [
        {
          "internalType": "address",
          "name": "operator",
          "type": "address"
        },
        {
          "internalType": "bool",
          "name": "approved",
          "type": "bool"
        }
      ],
      "name": "setApprovalForAll",
      "outputs": [],
      "stateMutability": "nonpayable",
      "type": "function"
    },
    {
      "inputs": [
        {
          "internalType": "bytes4",
          "name": "interfaceId",
          "type": "bytes4"
        }
      ],
      "name": "supportsInterface",
      "outputs": [
        {
          "internalType": "bool",
          "name": "",
          "type": "bool"
        }
      ],
      "stateMutability": "view",
      "type": "function",
      "constant": true
    },
    {
      "inputs": [],
      "name": "symbol",
      "outputs": [
        {
          "internalType": "string",
          "name": "",
          "type": "string"
        }
      ],
      "stateMutability": "view",
      "type": "function",
      "constant": true
    },
    {
      "inputs": [
        {
          "internalType": "uint256",
          "name": "tokenId",
          "type": "uint256"
        }
      ],
      "name": "tokenURI",
      "outputs": [
        {
          "internalType": "string",
          "name": "",
          "type": "string"
        }
      ],
      "stateMutability": "view",
      "type": "function",
      "constant": true
    },
    {
      "inputs": [],
      "name": "totalSupply",
      "outputs": [
        {
          "internalType": "uint256",
          "name": "",
          "type": "uint256"
        }
      ],
      "stateMutability": "view",
      "type": "function",
      "constant": true
    },
    {
      "inputs": [
        {
          "internalType": "uint256",
          "name": "_id",
          "type": "uint256"
        }
      ],
      "name": "mint",
      "outputs": [],
      "stateMutability": "payable",
      "type": "function",
      "payable": true
    },
    {
      "inputs": [
        {
          "internalType": "address",
          "name": "from",
          "type": "address"
        },
        {
          "internalType": "address",
          "name": "to",
          "type": "address"
        },
        {
          "internalType": "uint256",
          "name": "tokenId",
          "type": "uint256"
        }
      ],
      "name": "transferFrom",
      "outputs": [],
      "stateMutability": "nonpayable",
      "type": "function"
    },
    {
      "inputs": [],
      "name": "getBuildings",
      "outputs": [
        {
          "components": [
            {
              "internalType": "string",
              "name": "name",
              "type": "string"
            },
            {
              "internalType": "address",
              "name": "owner",
              "type": "address"
            },
            {
              "internalType": "int256",
              "name": "posX",
              "type": "int256"
            },
            {
              "internalType": "int256",
              "name": "posY",
              "type": "int256"
            },
            {
              "internalType": "int256",
              "name": "posZ",
              "type": "int256"
            },
            {
              "internalType": "uint256",
              "name": "sizeX",
              "type": "uint256"
            },
            {
              "internalType": "uint256",
              "name": "sizeY",
              "type": "uint256"
            },
            {
              "internalType": "uint256",
              "name": "sizeZ",
              "type": "uint256"
            }
          ],
          "internalType": "struct Land.Building[]",
          "name": "",
          "type": "tuple[]"
        }
      ],
      "stateMutability": "view",
      "type": "function",
      "constant": true
    },
    {
      "inputs": [
        {
          "internalType": "uint256",
          "name": "_id",
          "type": "uint256"
        }
      ],
      "name": "getBuilding",
      "outputs": [
        {
          "components": [
            {
              "internalType": "string",
              "name": "name",
              "type": "string"
            },
            {
              "internalType": "address",
              "name": "owner",
              "type": "address"
            },
            {
              "internalType": "int256",
              "name": "posX",
              "type": "int256"
            },
            {
              "internalType": "int256",
              "name": "posY",
              "type": "int256"
            },
            {
              "internalType": "int256",
              "name": "posZ",
              "type": "int256"
            },
            {
              "internalType": "uint256",
              "name": "sizeX",
              "type": "uint256"
            },
            {
              "internalType": "uint256",
              "name": "sizeY",
              "type": "uint256"
            },
            {
              "internalType": "uint256",
              "name": "sizeZ",
              "type": "uint256"
            }
          ],
          "internalType": "struct Land.Building",
          "name": "",
          "type": "tuple"
        }
      ],
      "stateMutability": "view",
      "type": "function",
      "constant": true
    }
  ],
  "bytecode": "0x6080604052670de0b6b3a7640000600655600560075560006008553480156200002757600080fd5b5060405162003edd38038062003edd83398181016040528101906200004d9190620008b2565b828281600090805190602001906200006792919062000779565b5080600190805190602001906200008092919062000779565b5050508060068190555060096040518061010001604052806040518060400160405280600981526020017f436974792048616c6c00000000000000000000000000000000000000000000008152508152602001600073ffffffffffffffffffffffffffffffffffffffff168152602001600081526020016000815260200160008152602001600a8152602001600a8152602001600a815250908060018154018082558091505060019003906000526020600020906008020160009091909190915060008201518160000190805190602001906200015f92919062000779565b5060208201518160010160006101000a81548173ffffffffffffffffffffffffffffffffffffffff021916908373ffffffffffffffffffffffffffffffffffffffff16021790555060408201518160020155606082015181600301556080820151816004015560a0820151816005015560c0820151816006015560e08201518160070155505060096040518061010001604052806040518060400160405280600f81526020017f456d6972617465205374616469756d00000000000000000000000000000000008152508152602001600073ffffffffffffffffffffffffffffffffffffffff16815260200160008152602001600a815260200160008152602001600a815260200160058152602001600381525090806001815401808255809150506001900390600052602060002090600802016000909190919091506000820151816000019080519060200190620002ba92919062000779565b5060208201518160010160006101000a81548173ffffffffffffffffffffffffffffffffffffffff021916908373ffffffffffffffffffffffffffffffffffffffff16021790555060408201518160020155606082015181600301556080820151816004015560a0820151816005015560c0820151816006015560e08201518160070155505060096040518061010001604052806040518060400160405280600a81526020017f556e6976657273697479000000000000000000000000000000000000000000008152508152602001600073ffffffffffffffffffffffffffffffffffffffff168152602001600081526020017ffffffffffffffffffffffffffffffffffffffffffffffffffffffffffffffff6815260200160008152602001600a8152602001600581526020016003815250908060018154018082558091505060019003906000526020600020906008020160009091909190915060008201518160000190805190602001906200043492919062000779565b5060208201518160010160006101000a81548173ffffffffffffffffffffffffffffffffffffffff021916908373ffffffffffffffffffffffffffffffffffffffff16021790555060408201518160020155606082015181600301556080820151816004015560a0820151816005015560c0820151816006015560e08201518160070155505060096040518061010001604052806040518060400160405280600481526020017f50617274000000000000000000000000000000000000000000000000000000008152508152602001600073ffffffffffffffffffffffffffffffffffffffff168152602001600a8152602001600a8152602001600a8152602001600a8152602001600581526020016003815250908060018154018082558091505060019003906000526020600020906008020160009091909190915060008201518160000190805190602001906200058f92919062000779565b5060208201518160010160006101000a81548173ffffffffffffffffffffffffffffffffffffffff021916908373ffffffffffffffffffffffffffffffffffffffff16021790555060408201518160020155606082015181600301556080820151816004015560a0820151816005015560c0820151816006015560e08201518160070155505060096040518061010001604052806040518060400160405280600a81526020017f4d795461692043697479000000000000000000000000000000000000000000008152508152602001600073ffffffffffffffffffffffffffffffffffffffff168152602001601481526020016014815260200160148152602001600a815260200160058152602001600381525090806001815401808255809150506001900390600052602060002090600802016000909190919091506000820151816000019080519060200190620006ea92919062000779565b5060208201518160010160006101000a81548173ffffffffffffffffffffffffffffffffffffffff021916908373ffffffffffffffffffffffffffffffffffffffff16021790555060408201518160020155606082015181600301556080820151816004015560a0820151816005015560c0820151816006015560e08201518160070155505050505062000ace565b8280546200078790620009d9565b90600052602060002090601f016020900481019282620007ab5760008555620007f7565b82601f10620007c657805160ff1916838001178555620007f7565b82800160010185558215620007f7579182015b82811115620007f6578251825591602001919060010190620007d9565b5b5090506200080691906200080a565b5090565b5b80821115620008255760008160009055506001016200080b565b5090565b6000620008406200083a8462000963565b6200093a565b9050828152602081018484840111156200085957600080fd5b62000866848285620009a3565b509392505050565b600082601f8301126200088057600080fd5b81516200089284826020860162000829565b91505092915050565b600081519050620008ac8162000ab4565b92915050565b600080600060608486031215620008c857600080fd5b600084015167ffffffffffffffff811115620008e357600080fd5b620008f1868287016200086e565b935050602084015167ffffffffffffffff8111156200090f57600080fd5b6200091d868287016200086e565b925050604062000930868287016200089b565b9150509250925092565b60006200094662000959565b905062000954828262000a0f565b919050565b6000604051905090565b600067ffffffffffffffff82111562000981576200098062000a74565b5b6200098c8262000aa3565b9050602081019050919050565b6000819050919050565b60005b83811015620009c3578082015181840152602081019050620009a6565b83811115620009d3576000848401525b50505050565b60006002820490506001821680620009f257607f821691505b6020821081141562000a095762000a0862000a45565b5b50919050565b62000a1a8262000aa3565b810181811067ffffffffffffffff8211171562000a3c5762000a3b62000a74565b5b80604052505050565b7f4e487b7100000000000000000000000000000000000000000000000000000000600052602260045260246000fd5b7f4e487b7100000000000000000000000000000000000000000000000000000000600052604160045260246000fd5b6000601f19601f8301169050919050565b62000abf8162000999565b811462000acb57600080fd5b50565b6133ff8062000ade6000396000f3fe60806040526004361061011f5760003560e01c806370a08231116100a0578063b88d4fde11610064578063b88d4fde14610405578063c87b56dd1461042e578063d5abeb011461046b578063d9cf6a2614610496578063e985e9c5146104c15761011f565b806370a082311461031b57806395d89b41146103585780639dfd8b0214610383578063a0712d68146103c0578063a22cb465146103dc5761011f565b806318160ddd116100e757806318160ddd1461021d57806323b872dd1461024857806342842e0e146102715780634c96a0621461029a5780636352211e146102de5761011f565b806301ffc9a71461012457806306fdde0314610161578063081812fc1461018c578063095ea7b3146101c957806313faede6146101f2575b600080fd5b34801561013057600080fd5b5061014b600480360381019061014691906121f4565b6104fe565b6040516101589190612857565b60405180910390f35b34801561016d57600080fd5b506101766105e0565b6040516101839190612872565b60405180910390f35b34801561019857600080fd5b506101b360048036038101906101ae9190612246565b610672565b6040516101c091906127ce565b60405180910390f35b3480156101d557600080fd5b506101f060048036038101906101eb91906121b8565b6106f7565b005b3480156101fe57600080fd5b5061020761080f565b6040516102149190612b1b565b60405180910390f35b34801561022957600080fd5b50610232610815565b60405161023f9190612b1b565b60405180910390f35b34801561025457600080fd5b5061026f600480360381019061026a91906120b2565b61081b565b005b34801561027d57600080fd5b50610298600480360381019061029391906120b2565b610921565b005b3480156102a657600080fd5b506102c160048036038101906102bc9190612246565b610941565b6040516102d5989796959493929190612894565b60405180910390f35b3480156102ea57600080fd5b5061030560048036038101906103009190612246565b610a41565b60405161031291906127ce565b60405180910390f35b34801561032757600080fd5b50610342600480360381019061033d919061204d565b610af3565b60405161034f9190612b1b565b60405180910390f35b34801561036457600080fd5b5061036d610bab565b60405161037a9190612872565b60405180910390f35b34801561038f57600080fd5b506103aa60048036038101906103a59190612246565b610c3d565b6040516103b79190612af9565b60405180910390f35b6103da60048036038101906103d59190612246565b610dd0565b005b3480156103e857600080fd5b5061040360048036038101906103fe919061217c565b610f64565b005b34801561041157600080fd5b5061042c60048036038101906104279190612101565b610f7a565b005b34801561043a57600080fd5b5061045560048036038101906104509190612246565b610fdc565b6040516104629190612872565b60405180910390f35b34801561047757600080fd5b50610480611083565b60405161048d9190612b1b565b60405180910390f35b3480156104a257600080fd5b506104ab611089565b6040516104b89190612835565b60405180910390f35b3480156104cd57600080fd5b506104e860048036038101906104e39190612076565b61120d565b6040516104f59190612857565b60405180910390f35b60007f80ac58cd000000000000000000000000000000000000000000000000000000007bffffffffffffffffffffffffffffffffffffffffffffffffffffffff1916827bffffffffffffffffffffffffffffffffffffffffffffffffffffffff191614806105c957507f5b5e139f000000000000000000000000000000000000000000000000000000007bffffffffffffffffffffffffffffffffffffffffffffffffffffffff1916827bffffffffffffffffffffffffffffffffffffffffffffffffffffffff1916145b806105d957506105d8826112a1565b5b9050919050565b6060600080546105ef90612d94565b80601f016020809104026020016040519081016040528092919081815260200182805461061b90612d94565b80156106685780601f1061063d57610100808354040283529160200191610668565b820191906000526020600020905b81548152906001019060200180831161064b57829003601f168201915b5050505050905090565b600061067d8261130b565b6106bc576040517f08c379a00000000000000000000000000000000000000000000000000000000081526004016106b390612a79565b60405180910390fd5b6004600083815260200190815260200160002060009054906101000a900473ffffffffffffffffffffffffffffffffffffffff169050919050565b600061070282610a41565b90508073ffffffffffffffffffffffffffffffffffffffff168373ffffffffffffffffffffffffffffffffffffffff161415610773576040517f08c379a000000000000000000000000000000000000000000000000000000000815260040161076a90612ab9565b60405180910390fd5b8073ffffffffffffffffffffffffffffffffffffffff16610792611377565b73ffffffffffffffffffffffffffffffffffffffff1614806107c157506107c0816107bb611377565b61120d565b5b610800576040517f08c379a00000000000000000000000000000000000000000000000000000000081526004016107f7906129d9565b60405180910390fd5b61080a838361137f565b505050565b60065481565b60085481565b61082c610826611377565b82611438565b61086b576040517f08c379a000000000000000000000000000000000000000000000000000000000815260040161086290612a59565b60405180910390fd5b81600960018361087b9190612ca0565b815481106108b2577f4e487b7100000000000000000000000000000000000000000000000000000000600052603260045260246000fd5b906000526020600020906008020160010160006101000a81548173ffffffffffffffffffffffffffffffffffffffff021916908373ffffffffffffffffffffffffffffffffffffffff16021790555061091c83838360405180602001604052806000815250611516565b505050565b61093c83838360405180602001604052806000815250610f7a565b505050565b6009818154811061095157600080fd5b906000526020600020906008020160009150905080600001805461097490612d94565b80601f01602080910402602001604051908101604052809291908181526020018280546109a090612d94565b80156109ed5780601f106109c2576101008083540402835291602001916109ed565b820191906000526020600020905b8154815290600101906020018083116109d057829003601f168201915b5050505050908060010160009054906101000a900473ffffffffffffffffffffffffffffffffffffffff16908060020154908060030154908060040154908060050154908060060154908060070154905088565b6000806002600084815260200190815260200160002060009054906101000a900473ffffffffffffffffffffffffffffffffffffffff169050600073ffffffffffffffffffffffffffffffffffffffff168173ffffffffffffffffffffffffffffffffffffffff161415610aea576040517f08c379a0000000000000000000000000000000000000000000000000000000008152600401610ae190612a19565b60405180910390fd5b80915050919050565b60008073ffffffffffffffffffffffffffffffffffffffff168273ffffffffffffffffffffffffffffffffffffffff161415610b64576040517f08c379a0000000000000000000000000000000000000000000000000000000008152600401610b5b906129f9565b60405180910390fd5b600360008373ffffffffffffffffffffffffffffffffffffffff1673ffffffffffffffffffffffffffffffffffffffff168152602001908152602001600020549050919050565b606060018054610bba90612d94565b80601f0160208091040260200160405190810160405280929190818152602001828054610be690612d94565b8015610c335780601f10610c0857610100808354040283529160200191610c33565b820191906000526020600020905b815481529060010190602001808311610c1657829003601f168201915b5050505050905090565b610c45611f21565b6009600183610c549190612ca0565b81548110610c8b577f4e487b7100000000000000000000000000000000000000000000000000000000600052603260045260246000fd5b906000526020600020906008020160405180610100016040529081600082018054610cb590612d94565b80601f0160208091040260200160405190810160405280929190818152602001828054610ce190612d94565b8015610d2e5780601f10610d0357610100808354040283529160200191610d2e565b820191906000526020600020905b815481529060010190602001808311610d1157829003601f168201915b505050505081526020016001820160009054906101000a900473ffffffffffffffffffffffffffffffffffffffff1673ffffffffffffffffffffffffffffffffffffffff1673ffffffffffffffffffffffffffffffffffffffff16815260200160028201548152602001600382015481526020016004820154815260200160058201548152602001600682015481526020016007820154815250509050919050565b60006008549050600754811115610de657600080fd5b600073ffffffffffffffffffffffffffffffffffffffff166009600184610e0d9190612ca0565b81548110610e44577f4e487b7100000000000000000000000000000000000000000000000000000000600052603260045260246000fd5b906000526020600020906008020160010160009054906101000a900473ffffffffffffffffffffffffffffffffffffffff1673ffffffffffffffffffffffffffffffffffffffff1614610e9657600080fd5b670de0b6b3a7640000341015610eab57600080fd5b336009600184610ebb9190612ca0565b81548110610ef2577f4e487b7100000000000000000000000000000000000000000000000000000000600052603260045260246000fd5b906000526020600020906008020160010160006101000a81548173ffffffffffffffffffffffffffffffffffffffff021916908373ffffffffffffffffffffffffffffffffffffffff1602179055506001600854610f509190612c19565b600881905550610f603383611572565b5050565b610f76610f6f611377565b8383611590565b5050565b610f8b610f85611377565b83611438565b610fca576040517f08c379a0000000000000000000000000000000000000000000000000000000008152600401610fc190612ad9565b60405180910390fd5b610fd684848484611516565b50505050565b6060610fe78261130b565b611026576040517f08c379a000000000000000000000000000000000000000000000000000000000815260040161101d90612a99565b60405180910390fd5b60006110306116fd565b90506000815111611050576040518060200160405280600081525061107b565b8061105a84611714565b60405160200161106b9291906127aa565b6040516020818303038152906040525b915050919050565b60075481565b60606009805480602002602001604051908101604052809291908181526020016000905b828210156112045783829060005260206000209060080201604051806101000160405290816000820180546110e190612d94565b80601f016020809104026020016040519081016040528092919081815260200182805461110d90612d94565b801561115a5780601f1061112f5761010080835404028352916020019161115a565b820191906000526020600020905b81548152906001019060200180831161113d57829003601f168201915b505050505081526020016001820160009054906101000a900473ffffffffffffffffffffffffffffffffffffffff1673ffffffffffffffffffffffffffffffffffffffff1673ffffffffffffffffffffffffffffffffffffffff1681526020016002820154815260200160038201548152602001600482015481526020016005820154815260200160068201548152602001600782015481525050815260200190600101906110ad565b50505050905090565b6000600560008473ffffffffffffffffffffffffffffffffffffffff1673ffffffffffffffffffffffffffffffffffffffff16815260200190815260200160002060008373ffffffffffffffffffffffffffffffffffffffff1673ffffffffffffffffffffffffffffffffffffffff16815260200190815260200160002060009054906101000a900460ff16905092915050565b60007f01ffc9a7000000000000000000000000000000000000000000000000000000007bffffffffffffffffffffffffffffffffffffffffffffffffffffffff1916827bffffffffffffffffffffffffffffffffffffffffffffffffffffffff1916149050919050565b60008073ffffffffffffffffffffffffffffffffffffffff166002600084815260200190815260200160002060009054906101000a900473ffffffffffffffffffffffffffffffffffffffff1673ffffffffffffffffffffffffffffffffffffffff1614159050919050565b600033905090565b816004600083815260200190815260200160002060006101000a81548173ffffffffffffffffffffffffffffffffffffffff021916908373ffffffffffffffffffffffffffffffffffffffff160217905550808273ffffffffffffffffffffffffffffffffffffffff166113f283610a41565b73ffffffffffffffffffffffffffffffffffffffff167f8c5be1e5ebec7d5bd14f71427d1e84f3dd0314c0f7b2291e5b200ac8c7c3b92560405160405180910390a45050565b60006114438261130b565b611482576040517f08c379a0000000000000000000000000000000000000000000000000000000008152600401611479906129b9565b60405180910390fd5b600061148d83610a41565b90508073ffffffffffffffffffffffffffffffffffffffff168473ffffffffffffffffffffffffffffffffffffffff1614806114fc57508373ffffffffffffffffffffffffffffffffffffffff166114e484610672565b73ffffffffffffffffffffffffffffffffffffffff16145b8061150d575061150c818561120d565b5b91505092915050565b6115218484846118c1565b61152d84848484611b28565b61156c576040517f08c379a000000000000000000000000000000000000000000000000000000000815260040161156390612919565b60405180910390fd5b50505050565b61158c828260405180602001604052806000815250611cbf565b5050565b8173ffffffffffffffffffffffffffffffffffffffff168373ffffffffffffffffffffffffffffffffffffffff1614156115ff576040517f08c379a00000000000000000000000000000000000000000000000000000000081526004016115f690612999565b60405180910390fd5b80600560008573ffffffffffffffffffffffffffffffffffffffff1673ffffffffffffffffffffffffffffffffffffffff16815260200190815260200160002060008473ffffffffffffffffffffffffffffffffffffffff1673ffffffffffffffffffffffffffffffffffffffff16815260200190815260200160002060006101000a81548160ff0219169083151502179055508173ffffffffffffffffffffffffffffffffffffffff168373ffffffffffffffffffffffffffffffffffffffff167f17307eab39ab6107e8899845ad3d59bd9653f200f220920489ca2b5937696c31836040516116f09190612857565b60405180910390a3505050565b606060405180602001604052806000815250905090565b6060600082141561175c576040518060400160405280600181526020017f300000000000000000000000000000000000000000000000000000000000000081525090506118bc565b600082905060005b6000821461178e57808061177790612df7565b915050600a826117879190612c6f565b9150611764565b60008167ffffffffffffffff8111156117d0577f4e487b7100000000000000000000000000000000000000000000000000000000600052604160045260246000fd5b6040519080825280601f01601f1916602001820160405280156118025781602001600182028036833780820191505090505b5090505b600085146118b55760018261181b9190612ca0565b9150600a8561182a9190612e40565b60306118369190612c19565b60f81b818381518110611872577f4e487b7100000000000000000000000000000000000000000000000000000000600052603260045260246000fd5b60200101907effffffffffffffffffffffffffffffffffffffffffffffffffffffffffffff1916908160001a905350600a856118ae9190612c6f565b9450611806565b8093505050505b919050565b8273ffffffffffffffffffffffffffffffffffffffff166118e182610a41565b73ffffffffffffffffffffffffffffffffffffffff1614611937576040517f08c379a000000000000000000000000000000000000000000000000000000000815260040161192e90612939565b60405180910390fd5b600073ffffffffffffffffffffffffffffffffffffffff168273ffffffffffffffffffffffffffffffffffffffff1614156119a7576040517f08c379a000000000000000000000000000000000000000000000000000000000815260040161199e90612979565b60405180910390fd5b6119b2838383611d1a565b6119bd60008261137f565b6001600360008573ffffffffffffffffffffffffffffffffffffffff1673ffffffffffffffffffffffffffffffffffffffff1681526020019081526020016000206000828254611a0d9190612ca0565b925050819055506001600360008473ffffffffffffffffffffffffffffffffffffffff1673ffffffffffffffffffffffffffffffffffffffff1681526020019081526020016000206000828254611a649190612c19565b92505081905550816002600083815260200190815260200160002060006101000a81548173ffffffffffffffffffffffffffffffffffffffff021916908373ffffffffffffffffffffffffffffffffffffffff160217905550808273ffffffffffffffffffffffffffffffffffffffff168473ffffffffffffffffffffffffffffffffffffffff167fddf252ad1be2c89b69c2b068fc378daa952ba7f163c4a11628f55a4df523b3ef60405160405180910390a4611b23838383611d1f565b505050565b6000611b498473ffffffffffffffffffffffffffffffffffffffff16611d24565b15611cb2578373ffffffffffffffffffffffffffffffffffffffff1663150b7a02611b72611377565b8786866040518563ffffffff1660e01b8152600401611b9494939291906127e9565b602060405180830381600087803b158015611bae57600080fd5b505af1925050508015611bdf57506040513d601f19601f82011682018060405250810190611bdc919061221d565b60015b611c62573d8060008114611c0f576040519150601f19603f3d011682016040523d82523d6000602084013e611c14565b606091505b50600081511415611c5a576040517f08c379a0000000000000000000000000000000000000000000000000000000008152600401611c5190612919565b60405180910390fd5b805181602001fd5b63150b7a0260e01b7bffffffffffffffffffffffffffffffffffffffffffffffffffffffff1916817bffffffffffffffffffffffffffffffffffffffffffffffffffffffff191614915050611cb7565b600190505b949350505050565b611cc98383611d47565b611cd66000848484611b28565b611d15576040517f08c379a0000000000000000000000000000000000000000000000000000000008152600401611d0c90612919565b60405180910390fd5b505050565b505050565b505050565b6000808273ffffffffffffffffffffffffffffffffffffffff163b119050919050565b600073ffffffffffffffffffffffffffffffffffffffff168273ffffffffffffffffffffffffffffffffffffffff161415611db7576040517f08c379a0000000000000000000000000000000000000000000000000000000008152600401611dae90612a39565b60405180910390fd5b611dc08161130b565b15611e00576040517f08c379a0000000000000000000000000000000000000000000000000000000008152600401611df790612959565b60405180910390fd5b611e0c60008383611d1a565b6001600360008473ffffffffffffffffffffffffffffffffffffffff1673ffffffffffffffffffffffffffffffffffffffff1681526020019081526020016000206000828254611e5c9190612c19565b92505081905550816002600083815260200190815260200160002060006101000a81548173ffffffffffffffffffffffffffffffffffffffff021916908373ffffffffffffffffffffffffffffffffffffffff160217905550808273ffffffffffffffffffffffffffffffffffffffff16600073ffffffffffffffffffffffffffffffffffffffff167fddf252ad1be2c89b69c2b068fc378daa952ba7f163c4a11628f55a4df523b3ef60405160405180910390a4611f1d60008383611d1f565b5050565b60405180610100016040528060608152602001600073ffffffffffffffffffffffffffffffffffffffff1681526020016000815260200160008152602001600081526020016000815260200160008152602001600081525090565b6000611f8f611f8a84612b5b565b612b36565b905082815260208101848484011115611fa757600080fd5b611fb2848285612d52565b509392505050565b600081359050611fc98161336d565b92915050565b600081359050611fde81613384565b92915050565b600081359050611ff38161339b565b92915050565b6000815190506120088161339b565b92915050565b600082601f83011261201f57600080fd5b813561202f848260208601611f7c565b91505092915050565b600081359050612047816133b2565b92915050565b60006020828403121561205f57600080fd5b600061206d84828501611fba565b91505092915050565b6000806040838503121561208957600080fd5b600061209785828601611fba565b92505060206120a885828601611fba565b9150509250929050565b6000806000606084860312156120c757600080fd5b60006120d586828701611fba565b93505060206120e686828701611fba565b92505060406120f786828701612038565b9150509250925092565b6000806000806080858703121561211757600080fd5b600061212587828801611fba565b945050602061213687828801611fba565b935050604061214787828801612038565b925050606085013567ffffffffffffffff81111561216457600080fd5b6121708782880161200e565b91505092959194509250565b6000806040838503121561218f57600080fd5b600061219d85828601611fba565b92505060206121ae85828601611fcf565b9150509250929050565b600080604083850312156121cb57600080fd5b60006121d985828601611fba565b92505060206121ea85828601612038565b9150509250929050565b60006020828403121561220657600080fd5b600061221484828501611fe4565b91505092915050565b60006020828403121561222f57600080fd5b600061223d84828501611ff9565b91505092915050565b60006020828403121561225857600080fd5b600061226684828501612038565b91505092915050565b600061227b838361262c565b905092915050565b61228c81612cd4565b82525050565b61229b81612cd4565b82525050565b60006122ac82612b9c565b6122b68185612bca565b9350836020820285016122c885612b8c565b8060005b8581101561230457848403895281516122e5858261226f565b94506122f083612bbd565b925060208a019950506001810190506122cc565b50829750879550505050505092915050565b61231f81612ce6565b82525050565b600061233082612ba7565b61233a8185612bdb565b935061234a818560208601612d61565b61235381612f2d565b840191505092915050565b61236781612d1e565b82525050565b61237681612d1e565b82525050565b600061238782612bb2565b6123918185612bec565b93506123a1818560208601612d61565b6123aa81612f2d565b840191505092915050565b60006123c082612bb2565b6123ca8185612bfd565b93506123da818560208601612d61565b6123e381612f2d565b840191505092915050565b60006123f982612bb2565b6124038185612c0e565b9350612413818560208601612d61565b80840191505092915050565b600061242c603283612bfd565b915061243782612f3e565b604082019050919050565b600061244f602583612bfd565b915061245a82612f8d565b604082019050919050565b6000612472601c83612bfd565b915061247d82612fdc565b602082019050919050565b6000612495602483612bfd565b91506124a082613005565b604082019050919050565b60006124b8601983612bfd565b91506124c382613054565b602082019050919050565b60006124db602c83612bfd565b91506124e68261307d565b604082019050919050565b60006124fe603883612bfd565b9150612509826130cc565b604082019050919050565b6000612521602a83612bfd565b915061252c8261311b565b604082019050919050565b6000612544602983612bfd565b915061254f8261316a565b604082019050919050565b6000612567602083612bfd565b9150612572826131b9565b602082019050919050565b600061258a603483612bfd565b9150612595826131e2565b604082019050919050565b60006125ad602c83612bfd565b91506125b882613231565b604082019050919050565b60006125d0602f83612bfd565b91506125db82613280565b604082019050919050565b60006125f3602183612bfd565b91506125fe826132cf565b604082019050919050565b6000612616603183612bfd565b91506126218261331e565b604082019050919050565b600061010083016000830151848203600086015261264a828261237c565b915050602083015161265f6020860182612283565b506040830151612672604086018261235e565b506060830151612685606086018261235e565b506080830151612698608086018261235e565b5060a08301516126ab60a086018261278c565b5060c08301516126be60c086018261278c565b5060e08301516126d160e086018261278c565b508091505092915050565b60006101008301600083015184820360008601526126fa828261237c565b915050602083015161270f6020860182612283565b506040830151612722604086018261235e565b506060830151612735606086018261235e565b506080830151612748608086018261235e565b5060a083015161275b60a086018261278c565b5060c083015161276e60c086018261278c565b5060e083015161278160e086018261278c565b508091505092915050565b61279581612d48565b82525050565b6127a481612d48565b82525050565b60006127b682856123ee565b91506127c282846123ee565b91508190509392505050565b60006020820190506127e36000830184612292565b92915050565b60006080820190506127fe6000830187612292565b61280b6020830186612292565b612818604083018561279b565b818103606083015261282a8184612325565b905095945050505050565b6000602082019050818103600083015261284f81846122a1565b905092915050565b600060208201905061286c6000830184612316565b92915050565b6000602082019050818103600083015261288c81846123b5565b905092915050565b60006101008201905081810360008301526128af818b6123b5565b90506128be602083018a612292565b6128cb604083018961236d565b6128d8606083018861236d565b6128e5608083018761236d565b6128f260a083018661279b565b6128ff60c083018561279b565b61290c60e083018461279b565b9998505050505050505050565b600060208201905081810360008301526129328161241f565b9050919050565b6000602082019050818103600083015261295281612442565b9050919050565b6000602082019050818103600083015261297281612465565b9050919050565b6000602082019050818103600083015261299281612488565b9050919050565b600060208201905081810360008301526129b2816124ab565b9050919050565b600060208201905081810360008301526129d2816124ce565b9050919050565b600060208201905081810360008301526129f2816124f1565b9050919050565b60006020820190508181036000830152612a1281612514565b9050919050565b60006020820190508181036000830152612a3281612537565b9050919050565b60006020820190508181036000830152612a528161255a565b9050919050565b60006020820190508181036000830152612a728161257d565b9050919050565b60006020820190508181036000830152612a92816125a0565b9050919050565b60006020820190508181036000830152612ab2816125c3565b9050919050565b60006020820190508181036000830152612ad2816125e6565b9050919050565b60006020820190508181036000830152612af281612609565b9050919050565b60006020820190508181036000830152612b1381846126dc565b905092915050565b6000602082019050612b30600083018461279b565b92915050565b6000612b40612b51565b9050612b4c8282612dc6565b919050565b6000604051905090565b600067ffffffffffffffff821115612b7657612b75612efe565b5b612b7f82612f2d565b9050602081019050919050565b6000819050602082019050919050565b600081519050919050565b600081519050919050565b600081519050919050565b6000602082019050919050565b600082825260208201905092915050565b600082825260208201905092915050565b600082825260208201905092915050565b600082825260208201905092915050565b600081905092915050565b6000612c2482612d48565b9150612c2f83612d48565b9250827fffffffffffffffffffffffffffffffffffffffffffffffffffffffffffffffff03821115612c6457612c63612e71565b5b828201905092915050565b6000612c7a82612d48565b9150612c8583612d48565b925082612c9557612c94612ea0565b5b828204905092915050565b6000612cab82612d48565b9150612cb683612d48565b925082821015612cc957612cc8612e71565b5b828203905092915050565b6000612cdf82612d28565b9050919050565b60008115159050919050565b60007fffffffff0000000000000000000000000000000000000000000000000000000082169050919050565b6000819050919050565b600073ffffffffffffffffffffffffffffffffffffffff82169050919050565b6000819050919050565b82818337600083830152505050565b60005b83811015612d7f578082015181840152602081019050612d64565b83811115612d8e576000848401525b50505050565b60006002820490506001821680612dac57607f821691505b60208210811415612dc057612dbf612ecf565b5b50919050565b612dcf82612f2d565b810181811067ffffffffffffffff82111715612dee57612ded612efe565b5b80604052505050565b6000612e0282612d48565b91507fffffffffffffffffffffffffffffffffffffffffffffffffffffffffffffffff821415612e3557612e34612e71565b5b600182019050919050565b6000612e4b82612d48565b9150612e5683612d48565b925082612e6657612e65612ea0565b5b828206905092915050565b7f4e487b7100000000000000000000000000000000000000000000000000000000600052601160045260246000fd5b7f4e487b7100000000000000000000000000000000000000000000000000000000600052601260045260246000fd5b7f4e487b7100000000000000000000000000000000000000000000000000000000600052602260045260246000fd5b7f4e487b7100000000000000000000000000000000000000000000000000000000600052604160045260246000fd5b6000601f19601f8301169050919050565b7f4552433732313a207472616e7366657220746f206e6f6e20455243373231526560008201527f63656976657220696d706c656d656e7465720000000000000000000000000000602082015250565b7f4552433732313a207472616e736665722066726f6d20696e636f72726563742060008201527f6f776e6572000000000000000000000000000000000000000000000000000000602082015250565b7f4552433732313a20746f6b656e20616c7265616479206d696e74656400000000600082015250565b7f4552433732313a207472616e7366657220746f20746865207a65726f2061646460008201527f7265737300000000000000000000000000000000000000000000000000000000602082015250565b7f4552433732313a20617070726f766520746f2063616c6c657200000000000000600082015250565b7f4552433732313a206f70657261746f7220717565727920666f72206e6f6e657860008201527f697374656e7420746f6b656e0000000000000000000000000000000000000000602082015250565b7f4552433732313a20617070726f76652063616c6c6572206973206e6f74206f7760008201527f6e6572206e6f7220617070726f76656420666f7220616c6c0000000000000000602082015250565b7f4552433732313a2062616c616e636520717565727920666f7220746865207a6560008201527f726f206164647265737300000000000000000000000000000000000000000000602082015250565b7f4552433732313a206f776e657220717565727920666f72206e6f6e657869737460008201527f656e7420746f6b656e0000000000000000000000000000000000000000000000602082015250565b7f4552433732313a206d696e7420746f20746865207a65726f2061646472657373600082015250565b7f4552433732313a207472616e736665722063616c6c6572206973206e6f74206f60008201527f776e6572206f66206e6f7220617070726f766564000000000000000000000000602082015250565b7f4552433732313a20617070726f76656420717565727920666f72206e6f6e657860008201527f697374656e7420746f6b656e0000000000000000000000000000000000000000602082015250565b7f4552433732314d657461646174613a2055524920717565727920666f72206e6f60008201527f6e6578697374656e7420746f6b656e0000000000000000000000000000000000602082015250565b7f4552433732313a20617070726f76616c20746f2063757272656e74206f776e6560008201527f7200000000000000000000000000000000000000000000000000000000000000602082015250565b7f4552433732313a207472616e736665722063616c6c6572206973206e6f74206f60008201527f776e6572206e6f7220617070726f766564000000000000000000000000000000602082015250565b61337681612cd4565b811461338157600080fd5b50565b61338d81612ce6565b811461339857600080fd5b50565b6133a481612cf2565b81146133af57600080fd5b50565b6133bb81612d48565b81146133c657600080fd5b5056fea2646970667358221220e2026df5c1ff1b3dd1c73b1ce6f3bc5c8e6af918cd0d68d33926db07856f3b9d64736f6c63430008010033",
  "immutableReferences": {},
  "source": "// SPDX-License-Identifier: MIT\npragma solidity >=0.4.22 <0.9.0;\n\nimport \"@openzeppelin/contracts/token/ERC721/ERC721.sol\";\n\ncontract Land is ERC721 {\n    uint256 public cost = 1 ether;\n    uint256 public maxSupply = 5;\n    uint256 public totalSupply = 0;\n\n    struct Building {\n        string name;\n        address owner;\n        int256 posX;\n        int256 posY;\n        int256 posZ;\n        uint256 sizeX;\n        uint256 sizeY;\n        uint256 sizeZ;\n    }\n\n    Building[] public buildings;\n\n    constructor(\n        string memory _name,\n        string memory _symbol,\n        uint256 _cost\n    ) ERC721(_name, _symbol) {\n        cost = _cost;\n        buildings.push(\n            Building(\"City Hall\", address(0x0), 0, 0, 0, 10, 10, 10)\n        );\n\n        buildings.push(\n            Building(\"Emirate Stadium\", address(0x0), 0, 10, 0, 10, 5, 3)\n        );\n\n        buildings.push(\n            Building(\"University\", address(0x0), 0, -10, 0, 10, 5, 3)\n        );\n\n        buildings.push(Building(\"Part\", address(0x0), 10, 10, 10, 10, 5, 3));\n\n        buildings.push(\n            Building(\"MyTai City\", address(0x0), 20, 20, 20, 10, 5, 3)\n        );\n    }\n\n    function mint(uint256 _id) public payable {\n        uint256 supply = totalSupply;\n        require(supply <= maxSupply);\n        require(buildings[_id - 1].owner == address(0x00));\n        require(msg.value >= 1 ether);\n\n        buildings[_id - 1].owner = msg.sender;\n\n        totalSupply = totalSupply + 1;\n\n        _safeMint(msg.sender, _id);\n    }\n\n    function transferFrom(\n        address from,\n        address to,\n        uint256 tokenId\n    ) public override {\n        require(\n            _isApprovedOrOwner(_msgSender(), tokenId),\n            \"ERC721: transfer caller is not owner of nor approved\"\n        );\n        buildings[tokenId - 1].owner = to;\n        _safeTransfer(from, to, tokenId, \"\");\n    }\n\n    function getBuildings() public view returns (Building[] memory) {\n        return buildings;\n    }\n\n    function getBuilding(uint256 _id) public view returns (Building memory) {\n        return buildings[_id - 1];\n    }\n}\n",
  "sourcePath": "/var/www/blockchain/30days/day4-simplemetaverse/src/contracts/Land.sol",
  "compiler": {
    "name": "solc",
    "version": "0.8.1+commit.df193b15.Emscripten.clang"
  },
  "schemaVersion": "3.4.6",
  "updatedAt": "2022-04-12T15:53:01.241Z",
  "networkType": "ethereum",
  "devdoc": {
    "kind": "dev",
    "methods": {
      "approve(address,uint256)": {
        "details": "See {IERC721-approve}."
      },
      "balanceOf(address)": {
        "details": "See {IERC721-balanceOf}."
      },
      "getApproved(uint256)": {
        "details": "See {IERC721-getApproved}."
      },
      "isApprovedForAll(address,address)": {
        "details": "See {IERC721-isApprovedForAll}."
      },
      "name()": {
        "details": "See {IERC721Metadata-name}."
      },
      "ownerOf(uint256)": {
        "details": "See {IERC721-ownerOf}."
      },
      "safeTransferFrom(address,address,uint256)": {
        "details": "See {IERC721-safeTransferFrom}."
      },
      "safeTransferFrom(address,address,uint256,bytes)": {
        "details": "See {IERC721-safeTransferFrom}."
      },
      "setApprovalForAll(address,bool)": {
        "details": "See {IERC721-setApprovalForAll}."
      },
      "supportsInterface(bytes4)": {
        "details": "See {IERC165-supportsInterface}."
      },
      "symbol()": {
        "details": "See {IERC721Metadata-symbol}."
      },
      "tokenURI(uint256)": {
        "details": "See {IERC721Metadata-tokenURI}."
      },
      "transferFrom(address,address,uint256)": {
        "details": "See {IERC721-transferFrom}."
      }
    },
    "version": 1
  },
  "userdoc": {
    "kind": "user",
    "methods": {},
    "version": 1
  }
}